{
  "_format": "hh3-artifact-1",
  "contractName": "Mywallet",
  "sourceName": "contracts/Mywallet.sol",
  "abi": [
    {
      "inputs": [],
      "stateMutability": "nonpayable",
      "type": "constructor"
    },
    {
      "inputs": [],
      "name": "deposite",
      "outputs": [],
      "stateMutability": "payable",
      "type": "function"
    },
    {
      "inputs": [
        {
          "internalType": "uint256",
          "name": "value",
          "type": "uint256"
        }
      ],
      "name": "withdraw",
      "outputs": [],
      "stateMutability": "nonpayable",
      "type": "function"
    },
    {
      "inputs": [],
      "name": "withdraw",
      "outputs": [],
      "stateMutability": "nonpayable",
      "type": "function"
    }
  ],
  "bytecode": "0x6080604052348015600e575f5ffd5b505f80546001600160a01b031916331790556101ba8061002d5f395ff3fe608060405260043610610033575f3560e01c80632e1a7d4d146100375780633ccfd60b14610058578063a50ec32614610056575b5f5ffd5b348015610042575f5ffd5b5061005661005136600461016d565b61006c565b005b348015610063575f5ffd5b506100566100f0565b5f546001600160a01b031633146100c25760405162461bcd60e51b81526020600482015260156024820152742cb7ba9030b932903737ba103a34329037bbb732b960591b60448201526064015b60405180910390fd5b604051339082156108fc029083905f818181858888f193505050501580156100ec573d5f5f3e3d5ffd5b5050565b5f546001600160a01b031633146101415760405162461bcd60e51b81526020600482015260156024820152742cb7ba9030b932903737ba103a34329037bbb732b960591b60448201526064016100b9565b60405133904780156108fc02915f818181858888f1935050505015801561016a573d5f5f3e3d5ffd5b50565b5f6020828403121561017d575f5ffd5b503591905056fea26469706673582212200c5cfb500bd3407f78dca168c54f5c062f6a5136bc16958eae78bd86d4ff599b64736f6c634300081c0033",
  "linkReferences": {},
  "deployedLinkReferences": {},
  "immutableReferences": {},
  "inputSourceName": "project/contracts/Mywallet.sol",
  "buildInfoId": "solc-0_8_28-afcf7121204f09aa30e82639c439f2ec61ff5fe7"
}